:100000000C942A000C9447000C9447000C94470071
:100010000C9447000C9447000C9447000C94470044
:100020000C9447000C9447000C9447000C94470034
:100030000C9447000C9447000C9447000C94470024
:100040000C9447000C9447000C9447000C94470014
:100050000C94470011241FBECFE5D8E0DEBFCDBF12
:1000600011E0A0E6B0E0EEE1FBE002C005900D92E9
:10007000A834B107D9F711E0A8E4B1E001C01D929E
:10008000A538B107E1F70E948C040C948D050C94FF
:100090000000959A0000000082B3807C82BB089526
:1000A00017BA979A82B3887F82BB02C00E94490028
:1000B000C799FCCF8FEF87BB08951F93182F0E941D
:1000C000500018BB82B38B7782BB0E94490018BADC
:1000D0001F91089581B3846A81BB80E395E70197FE
:1000E000F1F781E00E945D0080EA9FE00197F1F75F
:1000F00008951F9381B3846A81BB80E395E70197DC
:10010000F1F781E00E945D0080EA9FE00197F1F73E
:1001100088E30E945D0015E8812F8A95F1F78EE053
:100120000E945D001A95F1F71F9108951F93182FF3
:100130000E94500018BB9798929A0E94490018BAE2
:100140001F9108958058E5E4F1E0E60FF11D9081DC
:10015000890F0E945D000895CF93DF93EC0103C0E7
:1001600021960E94960088818823D1F7DF91CF9154
:1001700008952AB128692AB9599A20B5266820BD60
:1001800069B9672F782F892F992760BD08959B0142
:10019000AC018AB188698AB980B5866880BD64E09F
:1001A000220F331F441F551F6A95D1F760E072E19B
:1001B0008AE790E00E946005C901DA01215029B95F
:1001C0000197A109B109892F9A2FAB2FBB2780BDB9
:1001D00008955F9BFECF8CB108958CB95D9BFECFD7
:1001E00008955F9BFECF8CB190E00895FC0104C0A0
:1001F0008CB95D9BFECF319680818823C9F7089525
:10020000EF92FF920F931F93DF93CF93CDB7DEB79B
:1002100066970FB6F894DEBF0FBECDBF182F092F1B
:10022000F62EE72EDE011196E0E9F0E083E0019082
:100230000D928150E1F7DE011D96E3E9F0E08AE0DE
:1002400001900D928150E1F7DE011496EDE9F0E0A6
:1002500089E001900D928150E1F70E946A0060E808
:1002600075E280E090E00E94C7000E946A0088EE7C
:1002700093E028EC30E0F9013197F1F70197D9F7D5
:1002800081E060E00E94A20080E690E00E94AC0065
:1002900088EE93E028EC30E0F9013197F1F701970F
:1002A000D9F781E061E00E94A2008DE690E00E9413
:1002B000AC00DE01119628EC30E009C08CB988EE64
:1002C00093E0F9013197F1F70197D9F711968C91E5
:1002D0008823A1F78DE08CB988E893E128EC30E021
:1002E000F9013197F1F70197D9F7DE011D9628EC56
:1002F00030E009C08CB988EE93E0F9013197F1F74D
:100300000197D9F711968C918823A1F78DE08CB9CC
:1003100088E893E128EC30E0F9013197F1F7019793
:10032000D9F7DE01149628EC30E009C08CB988EECC
:1003300093E0F9013197F1F70197D9F711968C9174
:100340008823A1F782E28CB988EE93E028EC30E0B4
:10035000F9013197F1F70197D9F7812F902F9C017F
:10036000D90128EC30E009C08CB988EE93E0F9019E
:100370003197F1F70197D9F711968C918823A1F75E
:1003800082E28CB988EE93E028EC30E0F9013197F5
:10039000F1F70197D9F78DE08CB988E893E128EC63
:1003A00030E0F9013197F1F70197D9F78F2D9E2DA4
:1003B0009C01D90128EC30E009C08CB988EE93E0AB
:1003C000F9013197F1F70197D9F711968C918823AC
:1003D000A1F78AE18CB988E893E128EC30E0F901D3
:1003E0003197F1F70197D9F70E946A0081E060E048
:1003F0000E94A2008CE790E00E94AC0081E061E0E6
:100400000E94A20082E890E00E94AC0080E197E2A6
:1004100028EC30E0F9013197F1F70197D9F70E9404
:100420006A0066960FB6F894DEBF0FBECDBFCF91BF
:10043000DF911F910F91FF90EF900895CF93DF937D
:1004400060916A0130916B0180916901482F50E001
:1004500040515240809168012AE0829FC0011124DE
:10046000480F591FFA013596E931F10510F0FA01EC
:100470007397232F30E0205132408AE0689FC001FB
:100480001124280F391FE901AD96CC33D10518F09E
:10049000E9012F973196EA30F10588F0CF016AE043
:1004A00070E00E944C05805D80934E01CF016AE0B0
:1004B00070E00E944C05605D60934D010BC080E3CD
:1004C00080934D01CF016AE070E00E944C05805D91
:1004D00080934E01CA30D10588F0CE016AE070E009
:1004E0000E944C05805D80935001CE016AE070E06F
:1004F0000E944C05605D60934F010BC080E38093C8
:100500004F01CE016AE070E00E944C05805D80934F
:100510005001DF91CF9108950E946A0081E060E070
:100520000E94A20086EA90E00E94AC000E941E0297
:1005300080914D010E94960080914E010E9496008C
:100540008AE30E94960080914F010E94960080915C
:1005500050010E9496000895AAE7B1E020E030E043
:100560004EE29BE22230310541F4909370018C9170
:100570008093710123E030E00BC02530310519F480
:100580004093730105C0F901E259FE4F8C918083BD
:100590002F5F3F4F11962A30310524F3F901E259BC
:1005A000FE4F80914C01808311820E946A0081E09D
:1005B00060E00E94A2008EE691E00E94AC000895E7
:1005C000A1E5B1E020E030E04EE29BE223303105CE
:1005D00041F490935F018C918093600124E030E0BE
:1005E0000BC02630310519F44093620105C0F901B2
:1005F000E45AFE4F8C9180832F5F3F4F11962B3032
:10060000310524F3F901E45AFE4F80914B018083B8
:10061000118281E061E00E94A2008CE591E00E94DD
:10062000AC0008957F928F929F92AF92BF92CF922B
:10063000DF92EF92FF920F931F93DF93CF93CDB78B
:10064000DEB7C456D0400FB6F894DEBF0FBECDBFA4
:100650000E94790081E060E00E94A2008AEA90E0B6
:100660000E94AC0081E061E00E94A20088EB90E073
:100670000E94AC0080E197E228EC30E0F90131976C
:10068000F1F70197D9F76CE070E080E090E00E940C
:10069000B90081E060E00E94A2000E946A00A0E030
:1006A000B0E07E010894E11CF11CF2E08F2E912C49
:1006B0008C0E9D1EE8ECAE2EB12C71E0C72ED12C15
:1006C000772473940FC1F701EA0FFB1F5F9BFECFE6
:1006D0008CB181938A3011F01196F8CFAE0DBF1D09
:1006E0001C92A0E0B0E0F9C08081843219F0AFEF35
:1006F000BFEFF8C0119681813196873409F0F0C0C0
:100700001196F701EA0FFB1F8081803509F0E5C0E3
:100710001196F701EA0FFB1F8081823509F0DDC0D9
:100720001196F701EA0FFB1F80818D3409F0D5C0C7
:100730001196F701EA0FFB1F8081833409F0CDC0C9
:10074000119697012A0F3B1FF90180818C3209F025
:10075000C4C0BD016F5F7F4FF701E60FF71F8081B7
:1007600080936801D0924A01C0924901D90111C019
:10077000B9018091490190914A01FC01E859FE4F6D
:1007800011962C9111972083019690934A018093A2
:10079000490111968C91119711969B012F5F3F4F44
:1007A0008C3231F7A901F701E60FF71F01C0A9014B
:1007B000818131969A012F5F3F4F8C32C1F78901B9
:1007C000F701E20FF31F808180937A01D0924A01F2
:1007D000C0924901D701A40FB51F11C089018091B2
:1007E000490190914A01FC01E658FE4F11962C9167
:1007F00011972083019690934A01809349011196A5
:100800008C911197119698012F5F3F4F8C3231F7E1
:10081000F701E20FF31F808180934C01B9016F5FF4
:100820007F4FF701E00FF11F01C0B90182813196BE
:100830009B012F5F3F4F8C32C1F7A901F701E20FF7
:10084000F31F808180935101D0924A01C0924901E7
:10085000D701A60FB71F12C04F5F5F4F80914901AC
:1008600090914A01FC01EF5AFE4F11962C9111977D
:100870002083019690934A018093490111968C91AF
:10088000119711968C3241F7480D591DFA0180815C
:1008900080934B010E946A0088EE93E0F501319746
:1008A000F1F70197D9F70E948C0288E893E1F501EE
:1008B0003197F1F70197D9F70E94AC020E94E0024C
:1008C00088E893E1F5013197F1F70197D9F70E9494
:1008D0006A0070924801AFEFBFEFF701EA0FFB1F0C
:1008E000B7FF02CF80914801882309F4ECCECC59A0
:1008F000DF4F0FB6F894DEBF0FBECDBFCF91DF91B3
:100900001F910F91FF90EF90DF90CF90BF90AF902D
:100910009F908F907F900895CF92DF92EF92FF92F9
:100920000F931F93DF93CF93CDB7DEB7AF970FB67B
:10093000F894DEBF0FBECDBFA098D0988AB38C7F4D
:100940008ABB8AB388678ABBA19AD89A8BB3877B04
:100950008BBB8BB38F7C8BBBDE011196E6E1F1E0A4
:100960008FE001900D928150E1F7DE015096E5E2B3
:10097000F1E080E201900D928150E1F70E94790050
:10098000A8ECEA2EF12C8E01005F1F4F6E01089437
:10099000C11CD11C0E947900C89975C083E060E039
:1009A0000E94A20086EC90E00E94AC0080ED97E0EF
:1009B000F7013197F1F70197D9F7C99B42C0A99A7E
:1009C0008BB3877B8BBB8BB38F7C8BBB0E9412035B
:1009D000C8016EE671E00E948205C80162ED70E018
:1009E0000E948205C8016CE571E00E94820588E9D9
:1009F0009AE3F7013197F1F70197D9F78091480110
:100A0000882329F0C601B8010E940001C3CF0E94CB
:100A10006A0081E060E00E94A20084ED90E00E9404
:100A2000AC0081E061E00E94A20085EE90E00E94AF
:100A3000AC0080E197E2F7013197F1F70197D9F720
:100A4000A9CF85B38C7F85BBAB9A8BB388648BBBF6
:100A50008BB38F7C8BBB83E060E00E94A2008FEEA3
:100A600090E00E94AC0082E061E00E94A2008AEF68
:100A700090E00E94AC0080E197E2F7013197F1F736
:100A80000197D9F79ACF83E060E00E94A20087E047
:100A900091E00E94AC007ECFAA1BBB1B51E107C0B6
:100AA000AA1FBB1FA617B70710F0A61BB70B881FFE
:100AB000991F5A95A9F780959095BC01CD0108958D
:100AC000A1E21A2EAA1BBB1BFD010DC0AA1FBB1F52
:100AD000EE1FFF1FA217B307E407F50720F0A21BC4
:100AE000B30BE40BF50B661F771F881F991F1A9431
:100AF00069F760957095809590959B01AC01BD015B
:100B0000CF010895FB01DC010D900020E9F711975A
:0E0B100001900D920020E1F70895F894FFCFB8
:100B1E00476F74204C6F636174696F6E0047534D5D
:100B2E0020576F726B696E672E2E2E00446F6E65A6
:100B3E0021004D6573736167652053656E742100E6
:100B4E0041540041542B434D47463D310041542BF7
:100B5E00434D47533D004E535400596F75277265F0
:100B6E00204472756E6B2100444F204E4F5420442A
:100B7E005249564521005374617274696E672E2E68
:100B8E002E002C00436F756C646E2774206C6F639F
:100B9E006174653A00436865636B20677073004E3D
:100BAE006F20416C636F686F6C0057656C6C2044EE
:100BBE006F6E65212121005374616E64696E67202A
:100BCE0042792E2E2E002B393737393834333335C0
:100BDE00383539390068747470733A2F2F6D61701F
:100BEE00732E676F6F676C652E636F6D2F6D6170FF
:080BFE00733F713D000040004F
:00000001FF
